{
  "contractName": "PaidHTTP",
  "abi": [
    {
      "anonymous": false,
      "inputs": [
        {
          "indexed": true,
          "internalType": "address",
          "name": "previousOwner",
          "type": "address"
        },
        {
          "indexed": true,
          "internalType": "address",
          "name": "newOwner",
          "type": "address"
        }
      ],
      "name": "OwnershipTransferred",
      "type": "event"
    },
    {
      "inputs": [
        {
          "internalType": "string",
          "name": "",
          "type": "string"
        }
      ],
      "name": "feesList",
      "outputs": [
        {
          "internalType": "uint256",
          "name": "",
          "type": "uint256"
        }
      ],
      "stateMutability": "view",
      "type": "function",
      "constant": true
    },
    {
      "inputs": [],
      "name": "owner",
      "outputs": [
        {
          "internalType": "address",
          "name": "",
          "type": "address"
        }
      ],
      "stateMutability": "view",
      "type": "function",
      "constant": true
    },
    {
      "inputs": [],
      "name": "renounceOwnership",
      "outputs": [],
      "stateMutability": "nonpayable",
      "type": "function"
    },
    {
      "inputs": [
        {
          "internalType": "address",
          "name": "newOwner",
          "type": "address"
        }
      ],
      "name": "transferOwnership",
      "outputs": [],
      "stateMutability": "nonpayable",
      "type": "function"
    },
    {
      "inputs": [
        {
          "internalType": "string",
          "name": "path",
          "type": "string"
        }
      ],
      "name": "pay",
      "outputs": [],
      "stateMutability": "payable",
      "type": "function",
      "payable": true
    },
    {
      "inputs": [
        {
          "internalType": "address",
          "name": "visitor",
          "type": "address"
        },
        {
          "internalType": "string",
          "name": "path",
          "type": "string"
        }
      ],
      "name": "checkTicket",
      "outputs": [
        {
          "internalType": "bool",
          "name": "",
          "type": "bool"
        }
      ],
      "stateMutability": "view",
      "type": "function",
      "constant": true
    },
    {
      "inputs": [
        {
          "internalType": "address",
          "name": "visitor",
          "type": "address"
        },
        {
          "internalType": "string",
          "name": "path",
          "type": "string"
        }
      ],
      "name": "punchTicket",
      "outputs": [],
      "stateMutability": "nonpayable",
      "type": "function"
    },
    {
      "inputs": [
        {
          "internalType": "address",
          "name": "visitor",
          "type": "address"
        }
      ],
      "name": "getTicket",
      "outputs": [
        {
          "internalType": "string",
          "name": "",
          "type": "string"
        }
      ],
      "stateMutability": "view",
      "type": "function",
      "constant": true
    },
    {
      "inputs": [
        {
          "internalType": "string",
          "name": "path",
          "type": "string"
        },
        {
          "internalType": "uint256",
          "name": "amount",
          "type": "uint256"
        }
      ],
      "name": "setFee",
      "outputs": [],
      "stateMutability": "nonpayable",
      "type": "function"
    },
    {
      "inputs": [
        {
          "internalType": "string",
          "name": "path",
          "type": "string"
        }
      ],
      "name": "getFee",
      "outputs": [
        {
          "internalType": "uint256",
          "name": "",
          "type": "uint256"
        }
      ],
      "stateMutability": "view",
      "type": "function",
      "constant": true
    },
    {
      "inputs": [],
      "name": "withdraw",
      "outputs": [],
      "stateMutability": "nonpayable",
      "type": "function"
    }
  ],
  "bytecode": "0x608060405234801561001057600080fd5b5061002d61002261003260201b60201c565b61003a60201b60201c565b6100fe565b600033905090565b60008060009054906101000a900473ffffffffffffffffffffffffffffffffffffffff169050816000806101000a81548173ffffffffffffffffffffffffffffffffffffffff021916908373ffffffffffffffffffffffffffffffffffffffff1602179055508173ffffffffffffffffffffffffffffffffffffffff168173ffffffffffffffffffffffffffffffffffffffff167f8be0079c531659141344cd1fd0a4f28419497f9722a3daafe3b4186f6b6457e060405160405180910390a35050565b6113868061010d6000396000f3fe60806040526004361061009c5760003560e01c8063715018a611610064578063715018a6146101775780638da5cb5b1461018e57806393292681146101b9578063cafe0e90146101f6578063ed1eee681461021f578063f2fde38b1461025c5761009c565b806314ac0f26146100a15780632b66d72e146100ca5780633ccfd60b146100e65780634717dea9146100fd57806347e5ecb51461013a575b600080fd5b3480156100ad57600080fd5b506100c860048036038101906100c39190610d83565b610285565b005b6100e460048036038101906100df9190610ddf565b61037b565b005b3480156100f257600080fd5b506100fb6104f5565b005b34801561010957600080fd5b50610124600480360381019061011f9190610d56565b6105c1565b6040516101319190610fd1565b60405180910390f35b34801561014657600080fd5b50610161600480360381019061015c9190610d83565b61070e565b60405161016e9190610fb6565b60405180910390f35b34801561018357600080fd5b5061018c61086e565b005b34801561019a57600080fd5b506101a36108f6565b6040516101b09190610f9b565b60405180910390f35b3480156101c557600080fd5b506101e060048036038101906101db9190610ddf565b61091f565b6040516101ed9190611053565b60405180910390f35b34801561020257600080fd5b5061021d60048036038101906102189190610e28565b61094d565b005b34801561022b57600080fd5b5061024660048036038101906102419190610ddf565b6109f0565b6040516102539190611053565b60405180910390f35b34801561026857600080fd5b50610283600480360381019061027e9190610d56565b610a18565b005b61028d610b10565b73ffffffffffffffffffffffffffffffffffffffff166102ab6108f6565b73ffffffffffffffffffffffffffffffffffffffff1614610301576040517f08c379a00000000000000000000000000000000000000000000000000000000081526004016102f890611013565b60405180910390fd5b61030b828261070e565b61031457600080fd5b60405180602001604052806000815250600260008473ffffffffffffffffffffffffffffffffffffffff1673ffffffffffffffffffffffffffffffffffffffff1681526020019081526020016000209080519060200190610376929190610c19565b505050565b610384816109f0565b341461038f57600080fd5b61045f600260003373ffffffffffffffffffffffffffffffffffffffff1673ffffffffffffffffffffffffffffffffffffffff16815260200190815260200160002080546103dc90611175565b80601f016020809104026020016040519081016040528092919081815260200182805461040890611175565b80156104555780601f1061042a57610100808354040283529160200191610455565b820191906000526020600020905b81548152906001019060200180831161043857829003601f168201915b5050505050610b18565b61049e576040517f08c379a000000000000000000000000000000000000000000000000000000000815260040161049590611033565b60405180910390fd5b80600260003373ffffffffffffffffffffffffffffffffffffffff1673ffffffffffffffffffffffffffffffffffffffff16815260200190815260200160002090805190602001906104f1929190610c19565b5050565b6104fd610b10565b73ffffffffffffffffffffffffffffffffffffffff1661051b6108f6565b73ffffffffffffffffffffffffffffffffffffffff1614610571576040517f08c379a000000000000000000000000000000000000000000000000000000000815260040161056890611013565b60405180910390fd5b6105796108f6565b73ffffffffffffffffffffffffffffffffffffffff166108fc479081150290604051600060405180830381858888f193505050501580156105be573d6000803e3d6000fd5b50565b60606105cb610b10565b73ffffffffffffffffffffffffffffffffffffffff166105e96108f6565b73ffffffffffffffffffffffffffffffffffffffff161461063f576040517f08c379a000000000000000000000000000000000000000000000000000000000815260040161063690611013565b60405180910390fd5b600260008373ffffffffffffffffffffffffffffffffffffffff1673ffffffffffffffffffffffffffffffffffffffff168152602001908152602001600020805461068990611175565b80601f01602080910402602001604051908101604052809291908181526020018280546106b590611175565b80156107025780601f106106d757610100808354040283529160200191610702565b820191906000526020600020905b8154815290600101906020018083116106e557829003601f168201915b50505050509050919050565b6000610718610b10565b73ffffffffffffffffffffffffffffffffffffffff166107366108f6565b73ffffffffffffffffffffffffffffffffffffffff161461078c576040517f08c379a000000000000000000000000000000000000000000000000000000000815260040161078390611013565b60405180910390fd5b61079582610b25565b610865600260008673ffffffffffffffffffffffffffffffffffffffff1673ffffffffffffffffffffffffffffffffffffffff16815260200190815260200160002080546107e290611175565b80601f016020809104026020016040519081016040528092919081815260200182805461080e90611175565b801561085b5780601f106108305761010080835404028352916020019161085b565b820191906000526020600020905b81548152906001019060200180831161083e57829003601f168201915b5050505050610b25565b14905092915050565b610876610b10565b73ffffffffffffffffffffffffffffffffffffffff166108946108f6565b73ffffffffffffffffffffffffffffffffffffffff16146108ea576040517f08c379a00000000000000000000000000000000000000000000000000000000081526004016108e190611013565b60405180910390fd5b6108f46000610b55565b565b60008060009054906101000a900473ffffffffffffffffffffffffffffffffffffffff16905090565b6001818051602081018201805184825260208301602085012081835280955050505050506000915090505481565b610955610b10565b73ffffffffffffffffffffffffffffffffffffffff166109736108f6565b73ffffffffffffffffffffffffffffffffffffffff16146109c9576040517f08c379a00000000000000000000000000000000000000000000000000000000081526004016109c090611013565b60405180910390fd5b806001836040516109da9190610f84565b9081526020016040518091039020819055505050565b6000600182604051610a029190610f84565b9081526020016040518091039020549050919050565b610a20610b10565b73ffffffffffffffffffffffffffffffffffffffff16610a3e6108f6565b73ffffffffffffffffffffffffffffffffffffffff1614610a94576040517f08c379a0000000000000000000000000000000000000000000000000000000008152600401610a8b90611013565b60405180910390fd5b600073ffffffffffffffffffffffffffffffffffffffff168173ffffffffffffffffffffffffffffffffffffffff161415610b04576040517f08c379a0000000000000000000000000000000000000000000000000000000008152600401610afb90610ff3565b60405180910390fd5b610b0d81610b55565b50565b600033905090565b6000808251149050919050565b600081604051602001610b389190610f84565b604051602081830303815290604052805190602001209050919050565b60008060009054906101000a900473ffffffffffffffffffffffffffffffffffffffff169050816000806101000a81548173ffffffffffffffffffffffffffffffffffffffff021916908373ffffffffffffffffffffffffffffffffffffffff1602179055508173ffffffffffffffffffffffffffffffffffffffff168173ffffffffffffffffffffffffffffffffffffffff167f8be0079c531659141344cd1fd0a4f28419497f9722a3daafe3b4186f6b6457e060405160405180910390a35050565b828054610c2590611175565b90600052602060002090601f016020900481019282610c475760008555610c8e565b82601f10610c6057805160ff1916838001178555610c8e565b82800160010185558215610c8e579182015b82811115610c8d578251825591602001919060010190610c72565b5b509050610c9b9190610c9f565b5090565b5b80821115610cb8576000816000905550600101610ca0565b5090565b6000610ccf610cca84611093565b61106e565b905082815260208101848484011115610ceb57610cea61123b565b5b610cf6848285611133565b509392505050565b600081359050610d0d81611322565b92915050565b600082601f830112610d2857610d27611236565b5b8135610d38848260208601610cbc565b91505092915050565b600081359050610d5081611339565b92915050565b600060208284031215610d6c57610d6b611245565b5b6000610d7a84828501610cfe565b91505092915050565b60008060408385031215610d9a57610d99611245565b5b6000610da885828601610cfe565b925050602083013567ffffffffffffffff811115610dc957610dc8611240565b5b610dd585828601610d13565b9150509250929050565b600060208284031215610df557610df4611245565b5b600082013567ffffffffffffffff811115610e1357610e12611240565b5b610e1f84828501610d13565b91505092915050565b60008060408385031215610e3f57610e3e611245565b5b600083013567ffffffffffffffff811115610e5d57610e5c611240565b5b610e6985828601610d13565b9250506020610e7a85828601610d41565b9150509250929050565b610e8d816110eb565b82525050565b610e9c816110fd565b82525050565b6000610ead826110c4565b610eb781856110cf565b9350610ec7818560208601611142565b610ed08161124a565b840191505092915050565b6000610ee6826110c4565b610ef081856110e0565b9350610f00818560208601611142565b80840191505092915050565b6000610f196026836110cf565b9150610f248261125b565b604082019050919050565b6000610f3c6020836110cf565b9150610f47826112aa565b602082019050919050565b6000610f5f602b836110cf565b9150610f6a826112d3565b604082019050919050565b610f7e81611129565b82525050565b6000610f908284610edb565b915081905092915050565b6000602082019050610fb06000830184610e84565b92915050565b6000602082019050610fcb6000830184610e93565b92915050565b60006020820190508181036000830152610feb8184610ea2565b905092915050565b6000602082019050818103600083015261100c81610f0c565b9050919050565b6000602082019050818103600083015261102c81610f2f565b9050919050565b6000602082019050818103600083015261104c81610f52565b9050919050565b60006020820190506110686000830184610f75565b92915050565b6000611078611089565b905061108482826111a7565b919050565b6000604051905090565b600067ffffffffffffffff8211156110ae576110ad611207565b5b6110b78261124a565b9050602081019050919050565b600081519050919050565b600082825260208201905092915050565b600081905092915050565b60006110f682611109565b9050919050565b60008115159050919050565b600073ffffffffffffffffffffffffffffffffffffffff82169050919050565b6000819050919050565b82818337600083830152505050565b60005b83811015611160578082015181840152602081019050611145565b8381111561116f576000848401525b50505050565b6000600282049050600182168061118d57607f821691505b602082108114156111a1576111a06111d8565b5b50919050565b6111b08261124a565b810181811067ffffffffffffffff821117156111cf576111ce611207565b5b80604052505050565b7f4e487b7100000000000000000000000000000000000000000000000000000000600052602260045260246000fd5b7f4e487b7100000000000000000000000000000000000000000000000000000000600052604160045260246000fd5b600080fd5b600080fd5b600080fd5b600080fd5b6000601f19601f8301169050919050565b7f4f776e61626c653a206e6577206f776e657220697320746865207a65726f206160008201527f6464726573730000000000000000000000000000000000000000000000000000602082015250565b7f4f776e61626c653a2063616c6c6572206973206e6f7420746865206f776e6572600082015250565b7f596f752068617665206e6f74207669736974656420746865207061676520796f60008201527f75207061696420666f722e000000000000000000000000000000000000000000602082015250565b61132b816110eb565b811461133657600080fd5b50565b61134281611129565b811461134d57600080fd5b5056fea2646970667358221220b1fd2b6803054b02cc7cf6ecb13ac791558c00a33cbfed871a9ceddf8a1a30ac64736f6c63430008060033",
  "immutableReferences": {},
  "source": "// SPDX-License-Identifier: GPL-3.0\n\npragma solidity >=0.7.0 <0.9.0;\n\nimport \"@openzeppelin/contracts/access/Ownable.sol\";\n\ncontract PaidHTTP is Ownable {\n    mapping (string => uint256) public feesList;\n    mapping (address => string) internal ticketsList;\n\n    function strToHash(string memory str) internal pure returns (bytes32) {\n        return keccak256(abi.encodePacked(str));\n    }\n\n    function isStringEmpty(string memory str) internal pure returns (bool) {\n        return bytes(str).length == 0;\n    }\n\n    function pay(string memory path) public payable {\n        require(msg.value == getFee(path));\n        require(\n            isStringEmpty(ticketsList[msg.sender]),\n            \"You have not visited the page you paid for.\"\n        );\n        ticketsList[msg.sender] = path;\n    }\n\n    function checkTicket(address visitor, string memory path) public view onlyOwner returns (bool) {\n        return strToHash(ticketsList[visitor]) == strToHash(path);\n    }\n\n    function punchTicket(address visitor, string memory path) public onlyOwner {\n        require(checkTicket(visitor, path));\n        ticketsList[visitor] = \"\";\n    }\n\n    function getTicket(address visitor) public view onlyOwner returns (string memory) {\n        return ticketsList[visitor];\n    }\n\n    function setFee(string memory path, uint256 amount) public onlyOwner {\n        feesList[path] = amount;\n    }\n\n    function getFee(string memory path) public view returns (uint256) {\n        return feesList[path];\n    }\n\n    function withdraw() external onlyOwner {\n        payable(owner()).transfer(address(this).balance);\n    }\n}\n",
  "sourcePath": "/home/pal4de/projects/isec/paidhttp-truffle/contracts/PaidHTTP.sol",
  "compiler": {
    "name": "solc",
    "version": "0.8.6+commit.11564f7e.Emscripten.clang"
  },
  "schemaVersion": "3.4.1",
  "updatedAt": "2021-07-18T15:25:01.226Z",
  "networkType": "ethereum",
  "devdoc": {
    "kind": "dev",
    "methods": {
      "owner()": {
        "details": "Returns the address of the current owner."
      },
      "renounceOwnership()": {
        "details": "Leaves the contract without owner. It will not be possible to call `onlyOwner` functions anymore. Can only be called by the current owner. NOTE: Renouncing ownership will leave the contract without an owner, thereby removing any functionality that is only available to the owner."
      },
      "transferOwnership(address)": {
        "details": "Transfers ownership of the contract to a new account (`newOwner`). Can only be called by the current owner."
      }
    },
    "version": 1
  },
  "userdoc": {
    "kind": "user",
    "methods": {},
    "version": 1
  }
}